:100000000C94EF010C9433020C9433020C943302E1
:100010000C9433020C9433020C9433020C9433028C
:100020000C9433020C9433020C9436270C94082859
:100030000C942A1D0C9433020C9433020C9433025A
:100040000C9433020C9433020C9433020C9433025C
:100050000C9433020C94911D0C9433020C943302D3
:100060000C9433020C9433020C9433020C9433023C
:100070000C9433020C9433020C9433020C9433022C
:100080000C94610A0C9433020C9433020C943302E6
:100090000C9433020C9433020C9433020C9433020C
:1000A0000C9433020C9433020C9433029113911389
:1000B000C413C4130414261475157515311475155D
:1000C000D814D81442154A1575157015E514E514A1
:1000D000E514E514E514E514E514E514E514E51458
:1000E000E514E514E514E514E514E514F514051517
:1000F0000C1513151D156D288F287A298F287A293C
:10010000D128F4287A2949295C2907634236B79B0C
:10011000D8A71A39685618AEBAAB558C1D3CB7CC67
:100120005763BD6DEDFD753EF6177231BF000000DF
:10013000803F08000000BE922449123EABAAAA2AC2
:10014000BECDCCCC4C3E00000080BEABAAAAAA3EDD
:1001500000000000BF000000803F00000000000819
:100160004178D3BB4387D1133D190E3CC3BD4282B6
:10017000AD2B3E68EC8276BED98FE1A93E4C80EF74
:10018000FFBE01C4FF7F3F00000000003A6F1E6FFA
:100190001F6F206F216F226F236F246F256F266FD3
:1001A000276F6F6F3B6F146F1A6F086F156F176FA4
:1001B0001C6F186F0C6F126F136F706F3C6F046FB2
:1001C000166F076F096F0A6F0B6F0D6F0E6F0F6F52
:1001D0006C6F716F3D6F1D6F1B6F066F196F056F31
:1001E000116F106F686F6A6F6D6F726F3E6F3F6F48
:1001F000406F416F426F436F446F456F696F6B6F24
:100200006E6F736F2A035400680065002000500071
:10021000720065006F006E006900630020004B00F3
:100220006500790062006F006100720064000000E8
:100230002C034F007200740068006F006C006900AE
:100240006E0065006100720020004B0065007900BF
:1002500062006F006100720064007300000004031C
:10026000090409026D00040100A0FA09040000015C
:10027000030101000921110100012240000705814D
:100280000308000A09040100010301020009211109
:10029000010001224D000705820308000A0904023B
:1002A00000010300000009211101000122360007AE
:1002B00005830308000A0904030001030000000984
:1002C00021110100012239000705840310000112E9
:1002D00001100100000008EDFE6160010001020054
:1002E0000105010906A101050719E029E715002507
:1002F0000195087501810205081901290595057503
:1003000001910295017503910105071900297715DF
:10031000002501957875018102C005010980A101C0
:10032000850216810026B7001A81002AB7007510D1
:1003300095018100C0050C0901A10185031601008A
:10034000269C021A01002A9C02751095018100C0AA
:1003500005010902A1010901A100050919012905E9
:10036000150025019505750181029501750381012F
:100370000501093009311581257F9502750881062F
:1003800009381581257F950175088106050C0A3805
:10039000021581257F950175088106C0C0050109F8
:1003A00006A101050719E029E71500250195087543
:1003B000018102950175088101050819012905953A
:1003C0000575019102950175039101050719002931
:1003D000FF150026FF00950675088100C000112456
:1003E0001FBECFEFDAE0DEBFCDBF04B603FE24C0F0
:1003F0008091A5039091A603A091A703B091A803B3
:100400008730904BA740B04BB9F41092A5031092DF
:10041000A6031092A7031092A80314BE84B7877F87
:1004200084BF88E10FB6F89480936000109260005A
:100430000FBEE0E0F8E3099512E0A0E0B1E0E8ECDF
:10044000FBE502C005900D92AA33B107D9F723E06E
:10045000AAE3B2E001C01D92A53AB207E1F70E94FB
:1004600082240C94E22D0C9400006E9A769A0C94DF
:1004700051020F931F932FEF89EF90E0215080409E
:100480009040E1F700C0000000E010E0980140E07B
:1004900064E070E088E591E00E94DD0D1F910F910E
:1004A00008950C9439020F931F9300E010E0980117
:1004B00040E063E070E080E491E00E94DD0D2FEF0A
:1004C00082E597E0215080409040E1F700C00000B5
:1004D0001F910F910C9477090F931F9300E010E088
:1004E000980140E068E070E080E091E00E94DD0D5E
:1004F0001F910F9108950C946C0280E090E0089594
:1005000081E0089581E008950C9482020E940F0911
:100510000E94BC100C94C506279A2F988FEF9FEF6E
:1005200090938700809386008AE08093800089E121
:10053000809381000C9431220E948C020C9435022D
:100540002F9881110AC080918000877F809380005E
:1005500010928D0010928C000895833041F48091A8
:1005600080008860809380008FEF9FEF12C0909191
:10057000800098609093800023E030E0281B3109D0
:10058000220F331F8FEF9FEF02C0969587952A9514
:10059000E2F790938D0080938C00089508950C9459
:1005A000CE020C94CF020E94E3150E9477090E94AC
:1005B00053022FEF84E39CE0215080409040E1F70C
:1005C00000C000000C94B61D0F931F93CF93DF93D0
:1005D0008C01FC01C081D181CE010E940E1BBE01A5
:1005E0000E94C805EC01B8010E948402882309F426
:1005F00019C1B801CE010E949E07882309F412C1D7
:10060000B801CE010E942A10882309F40BC1B80159
:10061000CE010E945706882309F404C1C431F0E7D3
:10062000DF0708F0CDC0C23080E7D80708F4A3C0C8
:10063000F8018281882309F4AAC00E94AB1C8111B1
:1006400002C00E94871C0E94BE1C90E090939603FB
:1006500080939503C230F0E7DF0721F48091950382
:10066000816082C0C33080E7D80721F48091950370
:1006700082607AC0C430E0E7DE0721F48091950300
:10068000846072C0C530F0E7DF0719F480919503EC
:1006900027C0C63080E7D80721F480919503806198
:1006A00063C0C730E0E7DE0721F4809195038062E4
:1006B0005BC0C830F0E7DF0721F4809195038064C8
:1006C00053C0C93080E7D80721F480919503806832
:1006D0004BC0CA30E0E7DE0729F4809195038460BF
:1006E000886042C0CB30F0E7DF0721F480919503AA
:1006F0008E7F3AC0CC3080E7D80721F480919503F3
:100700008D7F32C0CD30E0E7DE0721F48091950384
:100710008B7F2AC0CE30F0E7DF0719F48091950374
:1007200022C0CF3080E7D80721F4809195038F7ED7
:100730001BC0C031E0E7DE0721F4809195038F7D77
:1007400013C0C131F0E7DF0721F4809195038F7B5F
:100750000BC0C231D04721F4809195038F7704C03C
:10076000809195038B7F877F80939503809195037C
:100770000E94C21C57C0C115E0E7DE0779F0C13006
:10078000D047A1F081E080933A0280933B02C801F8
:10079000DF91CF911F910F910C948002F80182811B
:1007A000882309F43FC00E94D3023CC0F801828133
:1007B0008823C1F18091660381608093660332C013
:1007C000CB3380E7D807A1F4F8018281882321F098
:1007D00010923A0282E016C080913A02811106C05E
:1007E00086E20E94241286E20E94F71282E018C07C
:1007F000CC33D04739F6F8018281882331F010924A
:100800003B0280E20E9446130DC080913B028111A1
:1008100006C087E20E94241287E20E94F71280E25B
:100820000E944D1380E0DF91CF911F910F910895A9
:100830002CE0729FF00111243CE3839FE00DF11D39
:100840001124E60FF11DEE0FFF1FE457FE4F8591B7
:1008500094910E94DA05811540E5940708F047C09D
:10086000811520E4920708F01BC1883E910520F510
:10087000803E910508F08AC1883A910578F4853A5E
:10088000910508F0A5C08130910509F47FC108F4F5
:1008900036C18430910508F079C131C18D3B910595
:1008A00008F4A1C0803C910508F429C1FC01EE0FB9
:1008B000FF1FEC57FF4FEEC0811530E2930758F44D
:1008C000811541E0940708F061C1803F910508F46B
:1008D00016C190650895811520E3920708F0DDC0E8
:1008E0009F70880F991F8C5F9D4FFC01D3C08115AD
:1008F00035E5930708F043C0811544E5940708F0F7
:10090000E6C0811522E5920708F5811531E59307C8
:1009100008F0C9C0482F437021E030E002C0220F28
:10092000331F4A95E2F73C68AC0164E05695479561
:100930006A95E1F74370342B8F708695869540E277
:10094000849FC0011124822B932B0895282F269574
:100950002695AC01437055278115934508F0A8C032
:1009600030E2239FC001112421E030E002C0220FB9
:10097000331F4A95E2F7822B932B9C6808958F32A0
:1009800040E7940790F48F3120E7920708F0AAC05F
:10099000811536E5930708F49FC09C013056211558
:1009A000304108F0ACC09F709BC0803320E79207B5
:1009B00009F49FC008F49AC0813340E7940709F412
:1009C0009BC08233904709F09AC080E093ED089570
:1009D000853A910509F496C0863A910509F495C0C7
:1009E00083E890E40895883A910509F491C0893A22
:1009F000910509F490C08A3A910509F48FC08B3AA9
:100A0000910509F48EC08C3A910509F48DC08B3B99
:100A1000910509F48CC08C3B910509F48BC08D3A8B
:100A2000910509F48AC0803B910509F489C08E3A8A
:100A3000910509F488C08F3A910509F487C0813B7C
:100A4000910509F486C0823B910509F485C0833B7A
:100A5000910509F484C0843B910509F483C0853B6A
:100A6000910509F482C0863B910509F481C0873B5A
:100A7000910509F480C0883B910509F47FC0893B4A
:100A8000910509F47EC08A3B910509F07DC08AE298
:100A900096E408958591949108959927906C08950E
:100AA0009F70906A0895982F8827816F906A0895A3
:100AB00030E2239FC001112421E030E002C0220F68
:100AC000331F4A95E2F7822B932B9A680895982F4B
:100AD0008827846F906A08958F719927982F8827A7
:100AE000906208958F519047946D089580E091ED44
:100AF000089580E090ED089580E092ED089580E003
:100B000090E0089581E890E4089582E890E40895E3
:100B100082EE94E4089589EE94E408958AEE94E4D4
:100B2000089585EB94E4089586EB94E4089583EBAF
:100B300094E4089584EB94E4089587EB94E4089595
:100B40008CEC94E408958DEC94E4089583E895E4A6
:100B500008958AE895E4089582E995E4089584E982
:100B600095E4089581E296E4089583E296E4089579
:100B700084E296E4089585E296E4089586E296E498
:100B8000089587E296E4089580E094E40895089536
:100B90009CE0799FF00111249CE3899FE00DF11DF9
:100BA0001124E60FF11DEE0FFF1FE457FE4F859154
:100BB000949108958238910549F1B0F481339105FB
:100BC00009F459C048F48932910509F44FC08A32BA
:100BD000910509F455C008958533910509F441C084
:100BE0008933910599F00895833E910531F138F4E8
:100BF000803E910591F0823E9105A9F00895863ED0
:100C0000910501F1873E910539F1089520919503F1
:100C100020FD3BC021FD39C008958091950380FFE0
:100C200034C089E341C08091950382FF32C0809136
:100C3000950384FF2CC080E037C08091950382FD2E
:100C400028C0F5CF8091950383FF25C0809195033F
:100C500084FDF1CF87EE28C08091950383FD1BC0F2
:100C6000F5CF8091950385FF18C019C08091950339
:100C700085FF15C012C08091950386FF12C013C076
:100C80008091950386FF0FC00CC080EE0DC083EEEF
:100C90000BC082EE09C086EE07C085E305C089E27D
:100CA00003C081E301C08AE290E008950895CF93E4
:100CB000DF93EC01FB018281811102C081E040C021
:100CC00080914902811125C0C431D047B9F70E94F3
:100CD000560681E0809349020E945C1D9093480271
:100CE0008093470210923C0210923E0210923D0205
:100CF0001092400210923F02109242021092410262
:100D00001092440210924302109246021092450241
:100D100016C080914702909148020E94681D883C4D
:100D2000910560F680913C02E82FF0E0EE0FFF1F86
:100D3000E35CFD4FD183C0838F5F80933C0280E0F2
:100D4000DF91CF910895A6ECB1E021E030E08D91E4
:100D5000E82FF0E094E0F595E7959A95E1F741A149
:100D60008F70B90102C0660F771F8A95E2F7CB0139
:100D7000962F9095492341A392A1982B92A371E0BD
:100D8000AB3CB70721F7089508950C94C40685B7C6
:100D9000806885BF85B7806885BF0E94A306AAEBDF
:100DA000B1E021E030E08D91E82FF0E044E0F595EE
:100DB000E7954A95E1F741A18F70B90102C0660F2E
:100DC000771F8A95E2F7CB01962F9095492341A38F
:100DD00092A1982B92A371E0A63CB70721F7E4E516
:100DE000F2E0AAE4B2E0119211921D921D9282E00B
:100DF000EE35F807C1F70C949C02DF92EF92FF9258
:100E00000F931F93CF93DF9306EC11E0CAE4D2E077
:100E1000EE24E394F12CE5E0DE2EF80181918F01C0
:100E2000E82FF0E064E0F595E7956A95E1F721A1F8
:100E30008F70A70102C0440F551F8A95E2F7CA01BF
:100E4000242B21A392A18095982392A350EA5A952E
:100E5000F1F7AAEBB1E080E090E020E030E06D91A6
:100E6000E62FF0E054E0F595E7955A95E1F740A1BB
:100E700050E06F7002C0559547956A95E2F740FDC6
:100E800008C0A701022E02C0440F551F0A94E2F7C2
:100E900002C040E050E0842B952B2F5F3F4F2C3059
:100EA0003105E9F6288139812817390721F099831E
:100EB0008883D09278010E94A306229681E00B3CA1
:100EC000180709F0AACF809178018823C1F08150DA
:100ED00080937801882339F0EFE9FFE03197F1F74B
:100EE00000C000000CC0A4E5B2E0EAE4F2E08191A9
:100EF00091918D939D9342E0E435F407C1F70E94F0
:100F0000860281E0DF91CF911F910F91FF90EF90CA
:100F1000DF900895E82FF0E0EE0FFF1FEC5AFD4F31
:100F200080819181089508951092A5020C9477090B
:100F300081E08093A5020C947B020895AF92BF924A
:100F4000CF92DF92EF92FF920F931F93CF93DF9395
:100F5000CDB7DEB7A3970FB6F894DEBF0FBECDBFF7
:100F60005C018B0185E1A81680E7B80639F4FB0126
:100F700082818823B1F10E94710E0BC0F6E1AF1699
:100F8000F0E7BF0641F4FB018281882351F10E9402
:100F90007A0E80E033C1F7E1AF16F0E7BF0649F4FF
:100FA000FB0182818823B9F10E946D0E8111EFCF80
:100FB000E2CFF8E1AF16F0E7BF0639F4FB0182811A
:100FC0008823B9F10E949807E4CFF9E1AF16F0E762
:100FD000BF0639F4FB018281882359F10E949407EE
:100FE000D8CFFAE1AF16F0E7BF0649F4F8018281E5
:100FF0008823F9F08091A5028111F0CFE3CFFBE1C6
:10100000AF16F0E7BF0639F4F8018281882389F032
:101010000E94810E0BC0FCE1AF16F0E7BF0649F459
:10102000F8018281882329F00E948C0E0E946C02B4
:10103000B0CF8091A502882309F4DFC0F0EEAF168F
:10104000B10489F4F8018281882309F45FC00E9409
:10105000770981E08093A4021092A3021092A20269
:101060001092610296CFF2EEAF16B10499F4F80136
:101070008281882309F44AC00E9477098091A402E2
:10108000882319F081E08093A3021092A4021092A9
:10109000A2027FCFF3EEAF16B104B1F4F801828162
:1010A0008823A1F18091A302882381F10E9477090E
:1010B0001092A40281E08093A2021092600210922A
:1010C0005F0210925E0265CFF2E5AF16B10459F4EB
:1010D000F8018281882309F491C08091790190916F
:1010E0007A010A970EC0F1E5AF16B10479F4F80160
:1010F0008281882309F482C08091790190917A01DC
:101100000A9690937A018093790143CF20917D01D3
:1011100083E2E7E9F1E0DE01119601900D928A95F4
:10112000E1F7F8018081E1E0F0E0EC0FFD1FE80F4E
:10113000F11D80917B0190917C01E80FF91F608186
:10114000772767FD7095620F711D882777FD809561
:10115000982F0E94B42A20E030E040E451E40E943D
:10116000192A6B017C01F801818165E070E0681B40
:101170007109882777FD8095982F0E94B42A9B01DA
:10118000AC01C701B6010E94B1299B01AC0160E02E
:1011900070E080E090E40E94272C20E030E04CEDED
:1011A00050E40E94C42B6B017C01F80182818823EA
:1011B000D1F04FE050E0C701B6010E947D0D809153
:1011C000A4028823A1F08091610294E0899FF0013C
:1011D0001124EE59FD4FC082D182E282F3828F5FEB
:1011E0008093610204C0C701B6010E94AA0981E090
:1011F000EFEFAE16B10410F4CCCE81E0A3960FB69B
:10120000F894DEBF0FBECDBFDF91CF911F910F913C
:10121000FF90EF90DF90CF90BF90AF9008958091B6
:10122000A202882309F448C080915E0290915F0277
:10123000009779F40E945C1D90935F0280935E0298
:101240008091600290E0009771F48091610290E0DB
:101250000AC00E94681D2091790130917A012817F7
:10126000390740F308950197FC01EE0FFF1FEE0FC1
:10127000FF1FEE59FD4F60817181828193810E9431
:10128000AA09E091600284E0E89FF0011124EE5980
:10129000FD4F60817181828193814FE050E00E9417
:1012A0007D0D8091600290E001966091610270E096
:1012B0000E94922D8093600208950E94AB1C8111C0
:1012C00002C00E94871C0E94D01C80938D033E9A0E
:1012D000809171008D7F8093710082E080939000F7
:1012E0008AE18093910081E08093A8020895809123
:1012F000A802811102C00E945D091092F8021092AA
:10130000F702809171008D7F809371008091900031
:101310008F73809390001092BA021092B9021092CB
:10132000F1021092F2021092F3021092F402109263
:10133000F0021092EF02EFECF2E0AFEBB2E01192AC
:101340001192119211921D921D9282E0EF3EF807C8
:10135000B1F708958F929F92AF92BF92CF92DF9292
:10136000EF92FF920F931F93CF93DF936B017C015A
:101370008091B902882309F497C08091A802811155
:1013800002C00E945D090FEE12E0C7E0D0E0A701A5
:101390009601D8019E918E917E916E918D010E9451
:1013A000152A811145C0FE01EE0FFF1FEE0FFF1F32
:1013B000E153FD4F10821182128213829E01220F8F
:1013C000331F21543D4FD9011D921C9240E050E043
:1013D00060E070E06C5F7F4F4E5F5F4FC730D105BC
:1013E00051F121967F01E60EF71ED7018D909D9059
:1013F000AD90BC90870104501109D8018D929D9247
:10140000AD92BC921397D7011D921D921D921C9212
:1014100013977901E40EF51ED7010D911C91C701B8
:101420000297DC010D931C93D7011D921C92D2CF21
:10143000219708F0ACCF8091F7029091F8020197C4
:1014400097FD05C09093F8028093F70204C01092B4
:10145000F8021092F7028091F7029091F802209121
:10146000F5023091F6022817390724F01092F6029F
:101470001092F502892BC1F4809171008D7F8093C9
:101480007100809190008F73809390001092F10210
:101490001092F2021092F3021092F4021092F002F3
:1014A0001092EF021092B902DF91CF911F910F912C
:1014B000FF90EF90DF90CF90BF90AF909F908F9074
:1014C00008951F920F920FB60F9211244F925F92C0
:1014D0006F927F928F929F92AF92BF92CF92DF9244
:1014E000EF92FF922F933F934F935F936F937F936E
:1014F0008F939F93AF93BF93CF93DF93EF93FF931C
:101500008091B902882309F49AC1C091F702D09161
:10151000F8021C161D060CF092C14090A9025090D2
:10152000AA026090AB027090AC0220E030E0A9010A
:10153000C301B2010E94C02B18160CF065C0C13067
:10154000D10509F452C08091F5029091F602BE01D6
:101550000E94922D5C019093F6028093F502C09058
:10156000BB02D090BC02E090BD02F090BE0220E031
:1015700030E040E85FE3C701B6010E94B129609303
:10158000BB027093BC028093BD029093BE02F50132
:10159000EE0FFF1FEE0FFF1FE153FD4FA30192015E
:1015A00060817181828193810E94192A20E030E05C
:1015B00040E05EE30E94C42B9B01AC01C701B60171
:1015C0000E94C02B18168CF4C5010196BE010E9422
:1015D000922D9093F6028093F5021092BB02109226
:1015E000BC021092BD021092BE02E091F502F09191
:1015F000F602EE0FFF1FEE0FFF1FE153FD4F60815C
:10160000718182819381CFC0C090F102D090F202AB
:10161000E090F302F090F40220E030E0A901C7016D
:10162000B6010E94152A2197882309F4A2C0FE0161
:10163000EE0FFF1FEE0FFF1FE153FD4F80809180E3
:10164000A280B380A5019401C701B6010E94152AAA
:1016500087FF31C0A501940160E070E08CED93EC50
:101660000E94192A20E030E040E451E40E94192A47
:1016700020E030E040E05FE30E94C42B9B01AC011E
:1016800060E070E080E090E40E94272C9B01AC01B8
:10169000C501B4010E94C42B9B01AC01C701B60176
:1016A0000E94152A87FF07C0A701960160E070E03D
:1016B0008CED93E439C0A5019401C701B6010E94E5
:1016C000C02B18160CF055C0A501940160E070E025
:1016D0008CED93E40E94192A20E030E040E451E4CC
:1016E0000E94192A20E030E040E05FE30E94C42B12
:1016F0009B01AC0160E070E080E090E40E94272C48
:101700009B01AC01C501B4010E94C42B9B01AC013B
:10171000C701B6010E94C02B18165CF5A7019601FF
:1017200060E070E08CED93EC0E94192A20E030E03C
:1017300040E451E40E94192A20E030E040E05FE3F9
:101740000E94C42B9B01AC0160E070E080E090E45B
:101750000E94272C9B01AC01C701B6010E94C42B3B
:101760006093F1027093F2028093F3029093F4027B
:1017700012C0CC0FDD1FCC0FDD1FC153DD4F8881A0
:101780009981AA81BB818093F1029093F202A09388
:10179000F302B093F4026091F1027091F202809131
:1017A000F3029091F4022091A6023091A7022F3FFC
:1017B0004FEF340731F02F5F3F4F3093A702209354
:1017C000A6020E94970E6B017C0120E034E244EFF8
:1017D00051E40E94152A87FF08C026EFC22E28E296
:1017E000D22E24EFE22E21E4F22E20E030E040E081
:1017F00051E4C701B6010E94C42B9B01AC0160E01B
:1018000074E284E79BE40E94192A6B017C010E9428
:10181000862A709397006093960020917E01309104
:101820007F014091800150918101C701B6010E9462
:10183000C42B0E94862A709399006093980080912F
:10184000BA02882309F432C1C090B502D090B60222
:10185000E090B702F090B80220E030E0A901C701A3
:10186000B6010E94C02B1816D4F58091A602909163
:10187000A7028F3F2FEF920729F001969093A702BE
:101880008093A602C701B6010E94970E20E030E0C7
:1018900040E051E40E94C42B9B01AC0160E074E283
:1018A00084E79BE40E94192A6B017C010E94862A2E
:1018B000709397006093960020917E0130917F0194
:1018C0004091800150918101C701B6010E94C42B53
:1018D0000E94862A709399006093980008C0109225
:1018E00097001092960010929900109298006091C3
:1018F000AF027091B0026F5F7F4F7093B002609340
:10190000AF02209196003091970080E090E0232B69
:10191000F1F0C0919600D09197000E94B22A6B011D
:101920007C01BE0180E090E00E94B22A9B01AC01E4
:101930006091B1027091B2028091B3029091B402B1
:101940000E94192A20E03FEF4FE757E410C00E94A1
:10195000B22A6B017C0120E030EE4FEF54E460913D
:10196000B1027091B2028091B3029091B4020E94D0
:10197000C42B9B01AC01C701B6010E94C02B87FD9F
:1019800095C02091AD022F5F2093AD0230E0809191
:10199000890390918A0328173907A0F08091940356
:1019A000882319F01092AD020DC0809171008D7FD7
:1019B00080937100809190008F73809390001092BB
:1019C000BA027CC08091AE02C091AD02811128C0E4
:1019D000C0908E03D0908F03E0909003F09091031D
:1019E00020E030E0A901C701B6010E94C02B181603
:1019F000BCF481E08093AE021092B5021092B60260
:101A00001092B7021092B802C092B102D092B20204
:101A1000E092B302F092B402C150C093AD0242C052
:101A20001092AE021092A7021092A602E0918B03D0
:101A3000F0918C0348E0C49FE00DF11D11248081DA
:101A40009181A281B3818093B5029093B602A09355
:101A5000B702B093B80220E030E040E85EE3648172
:101A60007581868197810E94C42B6B017C016091F6
:101A7000820170E080E090E00E94B22A20E030E035
:101A800048EC52E40E94192A9B01AC01C701B6013F
:101A90000E94C42B6093B1027093B2028093B30290
:101AA0009093B4021092B0021092AF0280918D0315
:101AB00080FD04C01092BA021092B902FF91EF911A
:101AC000DF91CF91BF91AF919F918F917F916F9156
:101AD0005F914F913F912F91FF90EF90DF90CF90CA
:101AE000BF90AF909F908F907F906F905F904F903E
:101AF0000F900FBE0F901F901895CF92DF92EF922C
:101B0000FF92CF93DF936B017C01EA018091A802E1
:101B1000811102C00E945D0980918D0380FF46C043
:101B20008091F7029091F80208970CF03FC08091E5
:101B300071008D7F809371008091BA0281110E94A3
:101B4000770981E08093B9021092A7021092A60251
:101B500020E030E0A901C701B6010E94C02B181691
:101B6000DCF48091F7029091F802FC01EE0FFF1F68
:101B7000EE0FFF1FE153FD4FC082D182E282F3825C
:101B8000FC01EE0FFF1FE154FD4FD183C08301968E
:101B90009093F8028093F7028091710082608093A5
:101BA000710080919000806880939000DF91CF91C8
:101BB000FF90EF90DF90CF9008959F92AF92BF92E9
:101BC000CF92DF92EF92FF920F931F93CF93DF9309
:101BD000EC015B01942E680179018091A8028111CA
:101BE00002C00E945D0980918D0380FF6AC08091D0
:101BF00071008D7F809371008091B90281110E94E4
:101C0000770981E08093BA02D0938C03C0938B0351
:101C1000B0928A03A092890390929403C0928E039B
:101C2000D0928F03E0929003F09291031092BB0246
:101C30001092BC021092BD021092BE021092AD0230
:101C400088819981AA81BB818093B5029093B60265
:101C5000A093B702B093B80220E030E040E85EE322
:101C60006C817D818E819F810E94C42B6B017C01E0
:101C70006091820170E080E090E00E94B22A20E052
:101C800030E048EC52E40E94192A9B01AC01C701E4
:101C9000B6010E94C42B6093B1027093B20280938C
:101CA000B3029093B4021092B0021092AF028091EE
:101CB00071008260809371008091900080688093B1
:101CC0009000DF91CF911F910F91FF90EF90DF90E7
:101CD000CF90BF90AF909F90089580918D038170B9
:101CE000089580918D03816080938D030E94D41CA0
:101CF0000C949D0780918D038E7F80938D030C94AF
:101D0000D41C8091F90290E0019666E070E00E9498
:101D1000922D8093F90208958091F90290E0019745
:101D200066E070E00E94922D8093F90208958F92F0
:101D30009F92AF92BF92CF92DF92EF92FF92CF939A
:101D4000DF936B017C01C091A602D091A702BE0176
:101D500080E090E00E94B22A4B015C01A70196014D
:101D600060E070E08CE594E40E94192A9B01AC01CC
:101D7000C501B4010E94C42B0E94862A9B01409198
:101D8000F902433009F473C028F4442351F0413080
:101D9000E9F02DC1443009F4A0C0453009F4E0C099
:101DA00026C180E090E0A0E0BFE380937E019093A5
:101DB0007F01A0938001B09381011092A90210923B
:101DC000AA021092AB021092AC0211C11092A902A9
:101DD0001092AA021092AB021092AC02643171050B
:101DE00040F46A30710560F520E030E040E85EE3E1
:101DF0002BC0693C710508F0AAC080E090E00E9409
:101E0000B22A20E030E040EA51E40E94B02920E00C
:101E100030E044E353E40E94192A9B01AC010E9484
:101E2000C42B20E030E040E05EE30E94C42B9B0125
:101E3000AC0160E070E080E09EE30E94B02944C005
:101E400020E030E040E05FE3C701B6010E94C42B10
:101E50006B017C0180E090E0A0E0BEE380937E0116
:101E600090937F01A0938001B0938101C0C0109234
:101E7000A9021092AA021092AB021092AC024AE0A0
:101E8000469F9001479F300D1124C90168EB7BE00C
:101E90000E947E2DBC016C5D754077FF03C071957B
:101EA00061957109882777FD8095982F0E94B42A43
:101EB0002EE333EC4EE259E30E94C42B20E030E0E5
:101EC00040EC5EE30E94B12960937E0170937F0134
:101ED00080938001909381018AC01092A902109290
:101EE000AA021092AB021092AC02CE018370992725
:101EF000892BE1F0BE016170772780E090E00E94BD
:101F0000B22A20E030E040E05EE30E94C42B20E0F3
:101F100030E040E45FE30E94B12960937E0170935A
:101F20007F0180938001909381010CC080E090E05C
:101F3000A0E0BFE380937E0190937F01A093800196
:101F4000B0938101C770DD27CD2B09F050C01092EE
:101F50007E0110927F01109280011092810147C092
:101F60001092A9021092AA021092AB021092AC0237
:101F7000812C912CA12C9FE3B92E80927E0190920E
:101F80007F01A0928001B09281012739310578F15B
:101F900080E090E00E94B22A20E030E047E153E484
:101FA0000E94B02920E030E04AE754E40E94192A58
:101FB00020E030E048E452E40E94C42B20E030E00E
:101FC00040EA51E40E94F62A0E94812AFB01EE0FAA
:101FD000FF1FEE0FFF1FE553FE4F2081318142812D
:101FE0005381C701B6010E94C42B6B017C01C7015C
:101FF000B601DF91CF91FF90EF90DF90CF90BF902F
:10200000AF909F908F900895FB01309721F0BC0115
:102010008AEF92E009940895CF93DF93EC01E98170
:10202000FA818D8181FD13C083E0EE0FFF1F8A9539
:10203000E1F7E654F64864817581868197810E94B4
:1020400004101A82198218828D818E7F8D83DF9110
:10205000CF910895AF92BF92CF92DF92EF92FF920D
:102060000F931F93CF93DF931F92CDB7DEB75C0121
:102070008B01FC01F157EF3FF10511F008F04BC067
:1020800023E0EE0FFF1F2A95E1F7E654FE4FC280D2
:10209000D380E680F78060817181C7010E940410BF
:1020A0008091FB029091FC02009741F08A159B05FC
:1020B00029F0B601C7010E9404100AC08091FF02F6
:1020C00080FF08C081FF06C08AEF92E00E940C10DA
:1020D00021E001C020E08091FF0281608093FF0237
:1020E000F801928190FB81F98093FF02828188231D
:1020F000B1F1B092FC02A092FB0229830E945C1D08
:102100009093FE028093FD028091FA028F5F80938C
:10211000FA02298124C0E091FB02F091FC02309781
:10212000E9F093E0EE0FFF1F9A95E1F7E654F648C9
:1021300002811381E680F78060817181C7010E946E
:102140000410B801C7010E9404108AEF92E00E94B7
:102150000C108091FF028E7F8093FF0221E0822F7E
:102160000F90DF91CF911F910F91FF90EF90DF9033
:10217000CF90BF90AF9008958091FF0280FF1EC066
:102180008091FD029091FE020E94681D893C91059C
:10219000A8F0E091FB02F091FC0233E0EE0FFF1F8C
:1021A0003A95E1F7E654F64862817381868197811A
:1021B0000E9404108AEF92E00C940C100895909302
:1021C0000503809304030895E0910403F09105034F
:1021D000309721F00190F081E02D099480E008957E
:1021E000E0910403F0910503309721F00280F38120
:1021F000E02D09940895E0910403F09105033097D0
:1022000021F00480F581E02D0994089520910203C6
:10221000309103038217930771F090930303809327
:102220000203E0910403F0910503309721F006804A
:10223000F781E02D09940895209100033091010366
:102240008217930771F09093010380930003E0914C
:102250000403F0910503309721F00084F185E02D0F
:102260000994089508950C9432110E94531D0E9400
:10227000C7060E94D91D0C9431225F926F927F9203
:102280008F929F92AF92BF92CF92DF92EF92FF9286
:102290000F931F93CF93DF93CDB7DEB72A970FB677
:1022A000F894DEBF0FBECDBF0E94FD0697E0C92E99
:1022B00093E0D92E00E010E0AA24A394B12C502E74
:1022C000802F0E948A073C01F601E190F1906F0196
:1022D000E826F926E114F104B1F40F5F1F4F053031
:1022E000110569F78FEF89838A831B820E945C1D29
:1022F0008160782F9D838C8349815A816B818D8188
:102300000E94F6113AC08091660381FD0E949307F6
:1023100020E030E04501022E02C0880C991C0A948E
:10232000E2F7C4018E219F21892B09F12E835F8260
:102330006820792081E0672809F480E088870E947E
:102340005C1D8160782F9A8789874E815F816885BF
:102350008A850E94F611F801EE0FFF1FE95FFC4F1E
:1023600080819181882599259183808306C02F5F84
:102370003F4F2C30310571F6B0CF0E94701F109185
:1023800006030E94E4101817D9F00E94E41080930D
:1023900006032A960FB6F894DEBF0FBECDBFDF91BD
:1023A000CF911F910F91FF90EF90DF90CF90BF9052
:1023B000AF909F908F907F906F905F900C94D10220
:1023C0002A960FB6F894DEBF0FBECDBFDF91CF9136
:1023D0001F910F91FF90EF90DF90CF90BF90AF9043
:1023E0009F908F907F906F905F900895CF93DF9331
:1023F000CDB7DEB72B970FB6F894DEBF0FBECDBFBB
:102400004F83588769877A878B87DE01119686E02C
:10241000FD0111928A95E9F785E0FE01379601905A
:102420000D928A95E1F749815A816B817C818D817A
:102430009E810E94B3182B960FB6F894DEBF0FBE94
:10244000CDBFDF91CF910895CF93C82F882309F492
:10245000CCC0823859F40E94E41081FDC6C089E3E3
:102460000E948E1B0E94581C89E30CC0833879F4AB
:102470000E94E41080FDB9C083E50E948E1B0E947B
:10248000581C83E50E94CE1BCF910C94581C8438B5
:1024900059F40E94E41082FDA8C087E40E948E1BBC
:1024A0000E94581C87E4EECF8CEF8C0F813A48F4E1
:1024B0008C2F0E949D21811198C08C2F0E948E1B11
:1024C000E3CF80E28C0F883048F4C77081E001C010
:1024D000880FCA95EAF70E940F1CD6CF8BE58C0FA8
:1024E000833078F4C53A29F0C63A31F482E890E0B6
:1024F00005C081E890E002C083E890E0CF910C94A1
:10250000061188E58C0F853108F06FC0C83A61F17B
:10251000C93A69F1CA3A71F1CB3A79F1CC3A81F111
:10252000CB3B89F1CC3B91F1CD3A99F1C03BA1F184
:10253000CE3AA9F1CF3AB1F1C13BB9F1C23BC1F1F9
:10254000C33BC9F1C43BD1F1C53BD9F1C63BE1F175
:10255000C73BE9F1C83BF1F1C93BF9F1CA3B09F0CE
:102560003FC08AE292E03EC082EE90E03BC089EE3E
:1025700090E038C08AEE90E035C085EB90E032C044
:1025800086EB90E02FC083EB90E02CC084EB90E0D2
:1025900029C087EB90E026C08CEC90E023C08DEC46
:1025A00090E020C083E891E01DC08AE891E01AC065
:1025B00082E991E017C084E991E014C081E292E0E1
:1025C00011C083E292E00EC084E292E00BC085E28B
:1025D00092E008C086E292E005C087E292E002C085
:1025E00080E090E0CF910C941C11CF910895882346
:1025F00009F44BC0823859F40E94E41081FF45C0B1
:1026000089E30E948E1B0E94581C89E30CC083380A
:1026100071F40E94E41080FF38C083E50E948E1B95
:102620000E94581C83E50E94CE1B0C94581C8438D1
:1026300059F40E94E41082FF28C087E40E948E1B98
:102640000E94581C87E4EFCF9CEF980F913A58F303
:1026500090E2980F983050F4877091E001C0990F84
:102660008A95EAF7892F0E94151CDFCF9BE5980F0A
:10267000933020F480E090E00C940611885A853164
:1026800020F480E090E00C941C110895882321F040
:102690000E940F1C0C94581C0895882321F00E945E
:1026A000151C0C94581C08958F929F92AF92BF9264
:1026B000CF92DF92EF92FF920F931F93CF93DF930E
:1026C0001F92CDB7DEB74C01A62E472FFC01E58047
:1026D000E2948FE0E822F280FF2021F079830E94CB
:1026E0002C1C498149830E94871B4981882381F0E2
:1026F000FF2071F080E28A0D883050F082E00E9465
:10270000701B0E94871BBB24B394B826498101C06B
:10271000B12CE42FE295EF70F0E0EA5AFF4F0C94F1
:10272000A62D842F807F142F1F70882311F01295FF
:10273000107FFF2099F0112309F49AC180E28A0DDD
:10274000883010F0A11004C0812F0E940F1C03C01C
:10275000812F0E941F1C0E94581C8AC18A2D0E9432
:10276000F712112309F4C1C180E28A0D883010F0FC
:10277000A11004C0812F0E94151C03C0812F0E944C
:10278000251C0E94581CB1C1242F207F842F8F70DC
:10279000203211F08295807FAA2021F0F1E0AF165F
:1027A000B1F021C0FF2041F0EE2039F191E0E912B3
:1027B00024C00E943F1C99C1EE2021F0E1E0EE16FA
:1027C00009F493C189830E94421C89810BC1FF20B7
:1027D00029F0F5E0FE1508F488C10FC094E09E15BD
:1027E00008F483C1FFC0FF2059F0EE2031F0F4015E
:1027F000958190FF3DC19F7095830E94461375C1DE
:10280000EE2009F4EFC03AC1242F269526952370B7
:1028100030E02115310521F02130310561F065C12D
:10282000FF2021F08A2D942F937002C080E090E069
:102830000E9406115AC1FF2021F08A2D942F937017
:1028400002C080E090E00E941C114FC18A2DFF2041
:1028500019F00E94781E02C00E94E01E0E94651FAF
:1028600044C1842F837009F04EC0F1103EC12A2D5F
:10287000229526952770220F220F8A2D8F70C82E41
:10288000D12CE12CF12C022E04C0CC0CDD1CEE1C52
:10289000FF1C0A94D2F7A4FE10C06FE070E080E045
:1028A00090E004C0660F771F881F991F2A95D2F702
:1028B000609570958095909503C060E070E0CB01C5
:1028C000242F26952695237030E02230310569F0BB
:1028D0002330310589F06C297D298E299F292130EB
:1028E000310571F00E94051A00C16C297D298E29DD
:1028F0009F290E941F1AF9C00E94051AC701B6013C
:102900000E94EB19F2C0FF2019F0842F817001C0E2
:102910008695882309F4E9C02A2D229526952770EB
:10292000220F220F8A2D8F70C82ED12CE12CF12C72
:10293000022E04C0CC0CDD1CEE1CFF1C0A94D2F746
:10294000A4FE10C06FE070E080E090E004C0660F6D
:10295000771F881F991F2A95D2F7609570958095EB
:10296000909503C060E070E0CB01242F269526955A
:10297000237030E02230310569F02330310589F0D1
:102980006C297D298E299F292130310571F00E9403
:10299000D91AABC06C297D298E299F290E94F31A70
:1029A000A4C00E94D91AC701B6010E94BF1A9DC0D7
:1029B0000A2D10E0F801E05EF109E531F10508F0BB
:1029C00053C0EA59FF4F0C94A62D1A2D1F70842F67
:1029D0008F71FF2021F00E94581A812F0ECF0E9484
:1029E000791A812F0E944D1380C0FF2049F0F4E036
:1029F000FE1508F47AC0842F8F710E949E1A75C04C
:102A000085E08E1508F471C0F6CFFF2039F0842FD1
:102A10008F710E94581A69C0FF20C9F3842F8F71EB
:102A20000E94791A62C0FF2029F0842F8F710E94C2
:102A3000431A5BC00E94391A58C0FF2051F0142F6E
:102A40001F71812F0E94581A63E0812F0E94671B1B
:102A50004CC081E00E94701B91E09E1508F045C0BB
:102A600082E00E94701B41C0FF2031F0EE2079F21D
:102A70008A2D0E94241239C0EE2081F28A2D0E94F4
:102A8000F71233C04F706A2DC4010E947D020E946C
:102A900060192BC0F11029C0942F9F70492F50E06E
:102AA00042305105B9F04CF44115510581F04130E7
:102AB0005105D9F40E94592218C04330510569F0DC
:102AC0004430510591F48A2D0E94AD220EC00E941F
:102AD00042220BC00E94752208C00E94882205C0B5
:102AE0004F706A2DC4010E94C705BB20F1F00E94FF
:102AF000631B80FD1AC0F40112820E945D1B0E94BC
:102B0000581AC4010E94A3150E945D1B0F90DF910B
:102B1000CF911F910F91FF90EF90DF90CF90BF90DA
:102B2000AF909F908F900C94791A0F90DF91CF9176
:102B30001F910F91FF90EF90DF90CF90BF90AF90DB
:102B40009F908F9008950F931F93CF93DF93EC0185
:102B5000288139818B819C81892B31F03F3F11F095
:102B600080E003C02F3FE1F781E0811113C0CE0167
:102B70000E94E402882371F0688179818A810E9431
:102B8000591B8C010E940D1B0E94E019B801CE0157
:102B90000E945413DF91CF911F910F9108950E94CD
:102BA0002C1C0E943C1C0E94011C0E94581C0E946C
:102BB00011200E94651F80E090E00E94061180E0D5
:102BC00090E00C941C110E941C1C0C94CF150E94C8
:102BD0004E1B292F22952F7030E02C3031054CF4FC
:102BE0002A3031056CF42250310922303105B0F41D
:102BF00007C02C30310571F02F30310559F00EC06F
:102C0000803F31F018F4803E48F402C0843F31F434
:102C100081E0089593FB882780F9089580E0089566
:102C2000CF93DF9300D000D01F92CDB7DEB70F90C7
:102C30000F900F900F900F90DF91CF910895CF9349
:102C4000DF9300D000D000D0CDB7DEB726960FB608
:102C5000F894DEBF0FBECDBFDF91CF9108951F93D3
:102C6000CF93DF93C091110316E080911203C81730
:102C700099F0D0E01C9FF0011D9FF00D1124ED5E36
:102C8000FC4F4081518162817381848195810E94D2
:102C90001F162196C770E9CFDF91CF911F9108953C
:102CA0004091430350914403609145037091460362
:102CB00080914703909148030C941F16CF93809105
:102CC000480382958F7009F05FC080914503882387
:102CD00009F45AC020911103A0911203609143039B
:102CE00070914403809146039091470331E06F3F18
:102CF00009F030E0B32FC6E02A1709F445C0009769
:102D000021F07F3F21F44B2F03C041E001C040E0A0
:102D100030E040FD35C0C29FF001C39FF00D11248B
:102D2000ED5EFC4F418174132BC04081641328C0B9
:102D30004281411125C0438154814817590710F43D
:102D400041505109481B590B483C5105C8F480912A
:102D500048038F7080618093480386E0829FF00172
:102D6000839FF00D1124E85EFC4F80818F7080619D
:102D7000808383E493E00E94A315CF910C942F16D7
:102D80002F5F3F4F2770B8CFCF910895CF92DF923A
:102D9000EF92FF920F931F93CF93DF93CDB7DEB7E0
:102DA00062970FB6F894DEBF0FBECDBF8C0185E0F1
:102DB000F801DE011D9601900D928A95E1F7D80188
:102DC0004C9111965C91119712966C9112971396F3
:102DD000ED90FC90149770914303E091440320918F
:102DE0004603309147032115310531F0EF3F31F4AF
:102DF00081E07F3F19F403C081E001C080E0B82F7B
:102E0000B170CB2E80FD6CC1D0904503DD2009F45C
:102E1000F5C0F0914803E216F30638F0C701821BB3
:102E2000930B883C910548F09BC0209530952E0D62
:102E30003F1D283C310508F093C08F2F807F09F09B
:102E400052C0E51314C0741312C0D62E61110FC006
:102E5000FF70F061F09348030E94501683E493E002
:102E60000E94A31580914803F80185836CC1EF2867
:102E700031F05F3F31F481E04F3F19F403C081E04E
:102E800001C080E080FD03C081E0862701C080E0B2
:102E9000F82FF170FF2E80FF1CC08091110320914C
:102EA000120336E0821709F428C190E0389FF00140
:102EB000399FF00D1124ED5EFC4F7181571306C050
:102EC0007081471303C07281671303C00196877036
:102ED000E9CFD62E662309F436C18091480381607C
:102EE0008093480353C0E51308C0741306C06111F2
:102EF00004C0D8011596FC93AEC04D875E878D85C2
:102F00009E856A8B0E94E7156A89882329F1D62E4F
:102F1000662311F120914803822F82958F7090E0F3
:102F200002970CF460C0809143039091440398870A
:102F30008F831986FB86EA862C87CE01079651C0BF
:102F4000E51731F14D875E878D859E856A8B0E94DE
:102F5000E7156A8981112EC0C8010E94A315A4C07B
:102F60008F2F807F69F77E2DF98AE88A89890E94F0
:102F7000101683E493E00E94A315E3E4F3E086E0F7
:102F8000DF011D928A95E9F70E945016D12CDBC013
:102F90007413D8CF6111D6CFD8011596FC93C80110
:102FA0000E94A315E3E4F3E086E0DF011D928A9519
:102FB000E9F7C9C0D62E662379F220914803822F03
:102FC00082958F7090E0029774F080914303909106
:102FD00044039A8389831B82FD82EC822E83CE0177
:102FE00001960E94A31586E0F801A3E4B3E00190E6
:102FF0000D928A95E1F70E945E166FC0E216F30605
:1030000028F0C701821B930B9C0104C020953095CA
:103010002E0D3F1D283C310508F052C0D62E6623E8
:1030200009F49ACFE5132CC074132AC08091480389
:1030300080FD1DC0982F92959F70C9F0D8011596FC
:103040008C9315979F3039F09F5F9295907F8F708A
:10305000892B15968C93C8010E94A31586E0F80170
:10306000A3E4B3E001900D928A95E1F736C086E0C3
:10307000F801A3E4B3E001900D928A95E1F763C0F3
:103080004D875E878D859E850E94E715882379F0A0
:1030900086E0F801A3E4B3E001900D928A95E1F790
:1030A0000E945E160E945016DD24D3944CC080917D
:1030B0004803816080934803C8010E94A31543C060
:1030C0007E2DF98AE88A89890E941016E3E4F3E0EC
:1030D00086E0DF011D928A95E9F70E94501633C001
:1030E000662309F439CF4D875E878D859E850E94C2
:1030F000E715882309F430CFCBCF4D875E878D85C8
:103100009E850E944E1B292F22952F7030E0223081
:1031100031052CF49F7041F0811106C00CC02430A1
:1031200031052CF49F7049F4805E883020F0C8018E
:103130000E94A315CF2CDC2C06C0D80115969C91BB
:10314000907F91F7F8CF8D2D62960FB6F894DEBF81
:103150000FBECDBFDF91CF911F910F91FF90EF90E8
:10316000DF90CF9008951F93CF93DF93CDB7DEB755
:103170002C970FB6F894DEBF0FBECDBF4F83588794
:1031800069877A878B879C87CE0107960E94C6162F
:103190008823C1F02F8138858A859B85892B31F062
:1031A0003F3F11F080E003C02F3FE1F781E0811144
:1031B00047C04F81588569857A858B859C850E949B
:1031C0001F163EC086E0FE013796DE011196019083
:1031D0000D928A95E1F7FF81E8854A855B85411567
:1031E000510531F0EF3F31F481E0FF3F19F403C0A6
:1031F00081E001C080E080FD23C02091120330E017
:10320000C9010196877099276091110370E08617B4
:103210009707F1F1F983EA835D834C8396E0929FEF
:10322000D001939FB00D1124AD5EBC4FFE013196CD
:1032300001900D929A95E1F7809312030E942F1648
:1032400016E08091110390911203891779F1189F6C
:10325000C00111248D5E9C4F0E94C616882331F157
:10326000E09111031E9FF0011124ED5EFC4F40819F
:10327000518162817381848195810E941F168091A2
:10328000110390E001968770992780931103D9CF9D
:103290000E94E3151092120310921103E3E4F3E08D
:1032A00086E0DF011D928A95E9F7CACF2C960FB60A
:1032B000F894DEBF0FBECDBFDF91CF911F9108956F
:1032C000EF92FF920F931F93CF93DF93FC01009730
:1032D00009F46FC0F12CEE24E394EF012196849160
:1032E000843740F4843008F055C0813081F082305A
:1032F00021F15FC0853709F447C0C0F19CE7980F02
:10330000903708F056C08F770E94F71245C08F01A2
:103310000E5F1F4FFE01849190E2980F983050F499
:103320008770FE2D01C0FF0F8A95EAF78F2F0E944C
:103330002F1C15C00E94241214C08F010E5F1F4F56
:10334000FE01849190E2980F983068F48770FE2D0A
:1033500001C0FF0F8A95EAF78F2F0E94351C0E944B
:10336000581CE80119C00E94F712FBCFCF0102964A
:10337000FE01C491CC2361F0EFE9FFE03197F1F752
:1033800000C00000C150F6CFCF010296FE01F490BC
:10339000EC0102C00E9424128F2D882341F0EFE936
:1033A000FFE03197F1F700C000008150F6CFFE0139
:1033B00094CFDF91CF911F910F91FF90EF900895DF
:1033C000089560934D0370934E0380934F03909341
:1033D00050030C94CF150F931F9300914D03109140
:1033E0004E0320914F0330915003062B172B282BAF
:1033F000392B00934D0310934E0320934F033093CA
:1034000050031F910F910C94CF150F931F930091B0
:103410004D0310914E0320914F033091500306232A
:1034200017232823392300934D0310934E03209331
:103430004F03309350031F910F910C94CF150F93AE
:103440001F9300914D0310914E0320914F03309133
:103450005003062717272827392700934D03109379
:103460004E0320934F03309350031F910F910C9400
:10347000CF151092490310924A0310924B031092F9
:103480004C030C94CF1541E050E060E070E004C0C4
:10349000440F551F661F771F8A95D2F74093490343
:1034A00050934A0360934B0370934C030C94CF15D5
:1034B00041E050E060E070E004C0440F551F661F1B
:1034C000771F8A95D2F78091490390914A03A09182
:1034D0004B03B0914C03842B952BA62BB72B8093D9
:1034E000490390934A03A0934B03B0934C030C946D
:1034F000CF1541E050E060E070E004C0440F551F7C
:10350000661F771F8A95D2F7409550956095709504
:103510008091490390914A03A0914B03B0914C03D1
:1035200084239523A623B7238093490390934A03CA
:10353000A0934B03B0934C030C94CF1541E050E0A3
:1035400060E070E004C0440F551F661F771F8A9526
:10355000D2F78091490390914A03A0914B03B09117
:103560004C0384279527A627B72780934903909378
:103570004A03A0934B03B0934C030C94CF150F93C5
:103580001F930091490310914A0320914B033091FE
:103590004C03062B172B282B392B00934903109330
:1035A0004A0320934B0330934C031F910F910C94CB
:1035B000CF150F931F930091490310914A03209157
:1035C0004B0330914C030623172328233923009300
:1035D000490310934A0320934B0330934C031F91EC
:1035E0000F910C94CF150F931F93009149031091E5
:1035F0004A0320914B0330914C03062717272827B5
:1036000039270093490310934A0320934B033093C7
:103610004C031F910F910C94CF150895CF92DF9218
:10362000EF92FF920F931F93CF93DF93EC01C09023
:103630004D03D0904E03E0904F03F09050038091E3
:10364000490390914A03A0914B03B0914C03C82ABF
:10365000D92AEA2AFB2A0FE110E0B701A601002EC1
:1036600004C076956795579547950A94D2F740FD23
:1036700005C00150110988F780E007C0BE01802F06
:103680000E9418040197A9F3802FDF91CF911F9119
:103690000F91FF90EF90DF90CF900895CF93DF933D
:1036A000EC010E940E1BBE010E941804DF91CF9115
:1036B0000895CB010E944E1B08958091510385957A
:1036C000859585950895809151038770089598E0B8
:1036D000899F90011124622B609351030C94581A16
:1036E000409151038095842380935103982F9770C4
:1036F00069F450E0282F332727FD309542175307F0
:1037000029F08595859585950C94791A0895909161
:103710005103977081E009F480E00895909196013B
:103720009923D9F0909183019923B9F0982F969518
:10373000969596959F3088F5E0918401F0918501EA
:10374000E90FF11D877021E030E001C0220F8A955A
:10375000EAF78181822B8183089540918401509101
:10376000850120E030E09FEFFA01E20FF31F628154
:10377000681799F09F3F19F4611101C0922F2F5FD4
:103780003F4F2E30310581F79F3F39F0FA01E90FA5
:10379000F11D97FDFA958283089508959091960101
:1037A0009923E1F0909183019923C1F0982F969588
:1037B000969596959F3020F5E0918401F0918501D2
:1037C000E90FF11D877021E030E001C0220F8A95DA
:1037D000EAF720958181282321830895409184016F
:1037E0005091850120E030E0FA01E20FF31F928151
:1037F000981301C012822F5F3F4F2E303105A1F781
:10380000089581E090E0E0918401F0918501E80F56
:10381000F91F1082019680319105A9F708959091C2
:103820006503982B909365030895809590916503A7
:1038300098239093650308951092650308959091DD
:103840006403982B9093640308958095909164038A
:1038500098239093640308951092640308959091BF
:103860006303982B9093630308958095909163036D
:1038700098239093630308951092630308958093AF
:10388000520308951092520308954091840150917B
:10389000850120E030E080E0FA01E20FF31F918122
:1038A00091118F5F2F5F3F4F2F303105A9F708959A
:1038B000E0918401F0918501809165038083E0911E
:1038C0008401F0918501808190916403892B80832C
:1038D000E0918401F0918501808190916303892BAF
:1038E000808390915203992361F0E0918401F091DB
:1038F00085018081892B80830E94451C8111109253
:10390000520380918401909185010C94F0106DEE2A
:103910007EEF80E090E00E94CC2D60E082E090E0BD
:103920000E94BA2D60E083E090E00E94BA2D60E032
:1039300084E090E00E94BA2D60E085E090E00E9473
:10394000BA2D60E086E090E00E94BA2D6FEF87E02C
:1039500090E00C94BA2D80E090E00E94B42D21E01C
:103960008D3E9E4F09F020E0822F089582E090E086
:103970000C94AC2D83E090E00C94AC2D84E090E0AE
:103980000C94AC2D682F84E090E00C94BA2D86E066
:1039900090E00C94AC2D682F86E090E00C94BA2D4A
:1039A00087E090E00C94AC2D682F87E090E00C94B9
:1039B000BA2D80919C03843039F11092670320E482
:1039C00088E190E00FB6F894A895809360000FBE50
:1039D0002093600080E00E94A00280E00E94D1025B
:1039E00083B7817F846083BF83B7816083BF78940E
:1039F000889583B78E7F83BF88E10FB6F894809354
:103A00006000109260000FBE089508950895CF934E
:103A100080E00E94A0020E94051D0E94FD060E94F7
:103A2000061DC0E08C2F0E948A07892B29F4CF5FE6
:103A3000C530C1F780E001C081E0CF9108950E94B8
:103A4000E31580E00E94A0020E9431220E94E4104F
:103A50000C94D1021F920F920FB60F9211248F93E4
:103A60009F93AF93BF9380916703811113C080919F
:103A7000680390916903A0916A03B0916B0341962A
:103A8000A11DB11D8093680390936903A0936A03FD
:103A9000B0936B03BF91AF919F918F910F900FBE29
:103AA0000F901F90189582E084BD93E095BD9AEF2A
:103AB00097BD80936E0008952FB7F89480916803A6
:103AC00090916903A0916A03B0916B032FBF089591
:103AD000CF92DF92EF92FF920F931F932FB7F8943C
:103AE000409168035091690360916A0370916B0380
:103AF0002FBF6A017B01EE24FF248C0120E030E01F
:103B0000C016D106E206F30610F441505109481BD5
:103B1000590BCA011F910F91FF90EF90DF90CF904A
:103B200008951F920F920FB60F9211248F939F93B7
:103B3000AF93BF938091680390916903A0916A034A
:103B4000B0916B030196A11DB11D80936803909302
:103B50006903A0936A03B0936B03BF91AF919F91E8
:103B60008F910F900FBE0F901F9018950E94BB264B
:103B7000F8942FEF87EA91E6215080409040E1F7DA
:103B800000C0000087E090EBDC018093A5039093D8
:103B9000A603A093A703B093A8032CE088E190E0CC
:103BA0000FB6F894A895809360000FBE2093600034
:103BB000FFCF0E94AB1C811102C00E94871C0E9493
:103BC000B61C809366030E94BE1C90E090939603FF
:103BD0008093950387FB882780F9809383010E9457
:103BE000BA1C682F70E080E090E00C94E11980919D
:103BF0006E0380FF0BC06091890185E0689FB00172
:103C0000112475956795759567952AC081FF09C040
:103C10006091890185E0689FB001112475956795D1
:103C20001FC082FF07C06091890185E0689FB001D5
:103C3000112416C040916F034423C9F0609188019C
:103C4000461788F72091890185E0289F900111246B
:103C5000429FC001439F900D112470E00E94922D5D
:103C60006038710540F46115710539F002C065E0F6
:103C700070E0862F08958FE7089581E00895809180
:103C80006E0380FF08C06091870170E075956795AD
:103C90007595679521C081FF06C06091870170E02E
:103CA0007595679519C082FF04C06091870170E027
:103CB00010C080916F038823C1F060918601861740
:103CC000A0F790918701989FC001112470E00E9495
:103CD000922D6038710528F46115710521F0862F49
:103CE00008958FE7089581E0089561E070E0F4CFD2
:103CF000803F21F40E94F71D819504C0813F29F483
:103D00000E94F71D809372030895823F21F40E9460
:103D1000F71D819504C0833F29F40E94F71D80930D
:103D200071030895893F19F40E943F1E05C08A3F20
:103D300031F40E943F1E81958093730308958B3F59
:103D400021F40E943F1E819504C08C3F29F40E94FB
:103D50003F1E809374030895843F21F48091700383
:103D6000816017C0853F21F480917003826011C08B
:103D7000863F21F48091700384600BC0873F21F45B
:103D800080917003886005C0883F31F48091700392
:103D900080618093700308958D3F21F480916E03BC
:103DA00081600BC08E3F21F480916E03826005C05C
:103DB0008F3F29F480916E03846080936E03089591
:103DC000803F39F48091720387FF6CC010927203B8
:103DD00069C0813F29F4809172031816BCF362C058
:103DE00090917103823F29F497FF5CC01092710398
:103DF00059C0833F19F41916CCF354C0893F41F4DC
:103E00008091730318160CF04DC0109273034AC0D2
:103E10008A3F29F48091730387FF44C0F6CF8B3F1C
:103E200039F48091740387FF3DC0109274033AC047
:103E30008C3F29F4809174031816BCF333C0843F7F
:103E400021F4809170038E7F17C0853F21F480910B
:103E500070038D7F11C0863F21F4809170038B7FAA
:103E60000BC0873F21F480917003877F05C0883F96
:103E700031F4809170038F7E8093700313C08D3F67
:103E800021F480916E038E7F0BC08E3F21F48091D0
:103E90006E038D7F05C08F3F29F480916E038B7F69
:103EA00080936E038091710381110EC08091720323
:103EB00081110AC080917303811106C0809174033F
:103EC000811102C010926F03089580E793E00E9471
:103ED000FB100E945C1D90936D0380936C0308950A
:103EE0001F93CF93DF9380916C0390916D030E9499
:103EF000681D40916F03442321F020918A0130E036
:103F000006C020918B015AE0259F90011124821751
:103F1000930708F482C08091710310917203D091CD
:103F20007303C0917403811107C0111105C0D11131
:103F300003C0CC2309F471C04F3F19F04F5F409389
:103F40006F03181624F40E94F71D8093710380916B
:103F5000710387FF05C00E94F71D8195809371034F
:103F6000111624F40E94F71D80937203809172034E
:103F700087FF05C00E94F71D8195809372036091B1
:103F80007103662339F110917203112319F1772718
:103F900067FD7095872F972F0E94B42A23E333E3A0
:103FA00043E35FE30E94C42B0E94812A6093710364
:103FB000612F772767FD7095872F972F0E94B42A6E
:103FC00023E333E343E35FE30E94C42B0E94812A8F
:103FD000609372031D1624F40E943F1E80937303A6
:103FE0008091730387FF05C00E943F1E81958093D7
:103FF00073031C1624F40E943F1E80937403809167
:10400000740387FF05C00E943F1E8195809374034F
:10401000DF91CF911F910C94651FDF91CF911F917C
:104020000895E0E7F3E085E0DF011D928A95E9F766
:1040300010926F0310926E030895833081F128F47B
:10404000813059F08230D1F00895853009F449C0AB
:10405000B8F1863009F456C0089520918B01862F5F
:1040600090E0820F911D8F3F910520F4620F6093C5
:104070008B0108958FEF80938B01089520918A0121
:10408000862F90E0820F911D8F3F910520F4620FE3
:1040900060938A0108958FEF80938A01089520919B
:1040A0008901862F90E0820F911D8F3F910520F4AA
:1040B000620F6093890108958FEF809389010895BD
:1040C00020918801862F90E0820F911D8F3F9105EE
:1040D00020F4620F6093880108958FEF8093880128
:1040E000089520918701862F90E0820F911D8F3FC8
:1040F000910520F4620F6093870108958FEF8093FC
:104100008701089520918601862F90E0820F911DEE
:104110008F3F910520F4620F6093860108958FEF21
:10412000809386010895833011F128F4813049F09D
:10413000823091F00895853081F120F18630C1F10F
:10414000089580918B01681720F4861B80938B0162
:10415000089510928B01089580918A01681720F4C8
:10416000861B80938A01089510928A010895809198
:104170008901681720F4861B8093890108951092A5
:104180008901089580918801681720F4861B809327
:104190008801089510928801089580918701681719
:1041A00020F4861B8093870108951092870108955B
:1041B00080918601681720F4861B809386010895FC
:1041C000109286010895873220F58E3108F08EC056
:1041D000803109F46FC070F4873009F447C018F4D7
:1041E000863089F12EC08B3009F496C08E3009F4E8
:1041F00057C027C0863109F48FC020F4813109F4FB
:104200006AC01FC0893109F487C08B3109F43EC0F0
:1042100018C0883309F480C050F4893209F474C09E
:10422000853309F471C0873209F46EC00AC0833443
:1042300009F46AC020F48A3308F056C002C08834FA
:1042400061F080E0089580916603817F8E7F809386
:10425000660381E08093760308950E94E3150E942F
:1042600077090E9453020E94B61D56C090916603C2
:10427000892F8095817080FB90F919F09660986085
:1042800027C0997F977F9093660346C090916603FD
:1042900091FB882780F921E0822780FB91F913C0E8
:1042A0009091660392FB882780F921E0822780FBAA
:1042B00092F909C09091660393FB882780F921E069
:1042C000822780FB93F990936603882329F19160FC
:1042D0009093660308950E94E3158091830191E015
:1042E00089278093830118C027EC01C023EE280F93
:1042F00061E070E080E090E004C0660F771F881FE7
:10430000991F2A95D2F704C061E070E080E090E048
:104310000E94E1190E94E31581E0089580E008956C
:1043200080E008958E518A3030F4E82FF0E0E55EA9
:10433000FD4F8081089580E00895CF93C82F80912C
:104340007603813069F018F08230B1F180C0E091DD
:104350008401F09185018081823209F07AC007C022
:10436000E0918401F09185018081823249F48C2FA3
:104370000E948E2181111DC08C2F0E94E3201AC043
:104380008C2F0E949021811114C0C43179F048F41F
:10439000CB3079F0C03109F060C082E080937603C1
:1043A00008C0C93219F0C83321F057C01092760303
:1043B00054C081E0817053C0C93289F118F5C4310D
:1043C00071F1B0F4C73009F046C08EE180938B01E3
:1043D00082E380938A018AE08093890184E180935B
:1043E000880188E08093870188E28093860133C04A
:1043F00082EE8C0F863078F58C2F0E94922180936C
:10440000750329C0CE34E9F020F4CB3421F56AE0FD
:1044100013C0C13579F0C235F1F461E00DC080916F
:104420007503882319F01092750315C081E08093FD
:10443000760315C061E006C0809175030E941D20BF
:104440000AC06AE0809175030E94932004C0109214
:10445000760380E004C081E002C080E0ABCFCF9162
:1044600008950E94AB1C811102C00E94871C0E940B
:10447000C71C8093970380FF02C0869501C080E02F
:104480000C94A00280919703982F9695292F30E0E5
:10449000233031054CF49F5F990F8170892B816027
:1044A000809397030E94CB1C8091970386950C9470
:1044B000A00280919703982F969591F09158990FAB
:1044C0008170892B809397038E7F91E009F490E0AF
:1044D0008091970390FB80F9809397030E94CB1CF7
:1044E0008091970386950C94A00280919703982F52
:1044F000909590FB80F9809397030E94CB1C80914C
:10450000970380FF02C0869501C080E00C94A00252
:1045100030919703232F26952F5F2F77822F90E0DE
:10452000317004972CF4220F232B2093970302C0A1
:1045300030939703809197038E7F91E009F490E088
:104540008091970390FB80F9809397030E94CB1C86
:104550008091970386950C94A00220919703922F47
:1045600096959827990F822F8170892B80939703B6
:104570008E7F91E009F490E08091970390FB80F9A1
:10458000809397030E94CB1C8091970386950C948F
:10459000A002809187030895CF93DF9300D01F92EC
:1045A000CDB7DEB720919C03243019F523E0298391
:1045B0009B838A832093E9008FEF9091E8008150DC
:1045C00095FD06C095ED9A95F1F700008111F5CFA4
:1045D0008091E80085FF0DC040E050E063E070E0AE
:1045E000CE0101960E9429258091E8008E77809364
:1045F000E8000F900F900F90DF91CF910895CF9327
:10460000DF9300D01F92CDB7DEB720919C032430FA
:1046100021F522E029839B838A8383E08093E9004C
:104620008FEF9091E800815095FD06C095ED9A9529
:10463000F1F700008111F5CF8091E80085FF0DC0F2
:1046400040E050E063E070E0CE0101960E94292531
:104650008091E8008E778093E8000F900F900F9084
:10466000DF91CF91089520919C032430F1F422E052
:104670002093E9002FEF3091E800215035FD06C06E
:1046800035ED3A95F1F700002111F5CF2091E800C2
:1046900025FF0BC040E050E065E070E00E94292556
:1046A0008091E8008E778093E8000895CF93DF93A0
:1046B000EC0180919C03843009F046C090919601F2
:1046C0009923D9F0909183019923B9F08093E9005F
:1046D0008FEF9091E800815095FD06C095E19A9585
:1046E000F1F700008111F5CF8091E80085FF2CC023
:1046F00040E050E060E170E017C081E08093E900A5
:104700008FEF9091E800815095FD06C095ED9A9548
:10471000F1F700008111F5CF8091E80085FF14C00A
:1047200040E050E068E070E0CE010E9429258091D1
:10473000E8008E778093E80080E1FE01A7E7B3E010
:1047400001900D928A95E1F7DF91CF9108958091C4
:104750009B03811109C00E94BB260E9418278091EB
:10476000E20084608093E200089510929B03089514
:10477000089508950C941F1D42E061EC81E00E94B1
:10478000352642E061EC82E00E94352642E061EC91
:1047900083E00E94352642E161EC84E00C943526EA
:1047A00080919E03833009F455C030F4813071F05C
:1047B000823009F48EC008958A3009F47AC08B30B3
:1047C00009F460C0893009F09CC020C080919D032D
:1047D000813A09F096C08091E800877F8093E800D5
:1047E0008091A1039091A203892B21F060E080E0E9
:1047F00090E003C060E187E793E070E00E947225DB
:104800008091E8008B778093E800089580919D0364
:10481000813209F076C08091A1039091A2030097A4
:1048200019F0039709F06DC08091E800877F8093AD
:10483000E8008091E80082FD05C080919C03811111
:10484000F8CF5FC08091F100809387038091E800EA
:104850008B7753C080919D03813A09F052C08091BB
:10486000A1039091A203892B09F04BC08091E8002D
:10487000877F8093E8008091E80080FFFCCF8091E3
:10488000960136C080919D038132D9F58091A103B4
:104890009091A203892BA9F58091E800877F8093EE
:1048A000E8000E946A2680919F03809396010C94F1
:1048B000E31580919D03813221F58091E800877F87
:1048C0008093E8000E946A268091A0038093880369
:1048D000089580919D03813AA1F48091E800877F3B
:1048E0008093E8008091E80080FFFCCF80918803EE
:1048F0008093F1008091E8008E778093E8000C941B
:104900006A26089584B7877F84BF88E10FB6F8943C
:1049100080936000109260000FBE80E88093610079
:10492000109261000E9433110E94BB260E9418273A
:104930008091E20084608093E20078940E94932941
:104940000E9435118CE891E00E94DF1080919C0359
:10495000853069F40E94D91C80919A038823B1F3B1
:104960000E94071D882391F30E941325EFCF0E9418
:104970003D11ECCF292F332723303105A9F06CF4FA
:104980002130310509F442C02230310509F043C01D
:104990008DE690E022E632E042C021323105C9F0D6
:1049A0002232310519F137C099278130910541F044
:1049B0008230910541F0892B71F5EEE5F2E005C0FA
:1049C000E0E3F2E002C0E4E0F2E0849190E09F01D5
:1049D00026C0643000F5E62FF0E0EE0FFF1FEF5C1D
:1049E000FD4F2081318189E090E019C0643098F456
:1049F000E62FF0E0DF01AA0FBB1FA75DBD4F2D9191
:104A00003C91EB5DFD4F808190E009C082E190E038
:104A10002FEC32E004C080E090E020E030E0FA01CA
:104A200031832083089580E189BD82E189BD09B485
:104A300000FEFDCF8091D8008F7D8093D8008091BB
:104A4000E00082608093E0008091E00081FDFCCF77
:104A50000895CF92DF92EF92FF920F931F93CF931F
:104A6000DF937C018B01EA010E948B26811131C00A
:104A7000209731F088819981081B190BE80EF91EE7
:104A8000C12CD12C0115110519F18091E80085FD8B
:104A900014C08091E8008E778093E800209741F061
:104AA000888199818C0D9D1D9983888385E011C033
:104AB0000E948B26882331F30CC0F70181917F017E
:104AC0008093F10001501109FFEFCF1ADF0ADACF0E
:104AD00080E0DF91CF911F910F91FF90EF90DF90D9
:104AE000CF9008952091A3033091A4032617370790
:104AF00048F06115710539F42091E8002E77209374
:104B0000E80001C0B901FC0120E061157105B9F1AF
:104B100080919C03882309F440C0853009F43FC08C
:104B20008091E80083FD3DC08091E80082FF06C0CF
:104B30008091E80082FF26C080E008958091E8001F
:104B400080FFE3CF2091F3008091F20090E0922B60
:104B50006115710551F08830910538F42191209349
:104B6000F100615071090196F3CF21E0089709F037
:104B700020E08091E8008E778093E800C6CF211175
:104B8000C7CFD6CF80919C03882339F0853039F088
:104B90008091E80083FFCCCF04C082E0089583E0D9
:104BA000089581E008952091A3033091A40326176E
:104BB000370748F06115710539F42091E8002E7728
:104BC0002093E80001C0B901FC0120E061157105E6
:104BD000C1F180919C03882309F441C0853009F418
:104BE00040C08091E80083FD3EC08091E80082FFD4
:104BF00006C08091E80082FF27C080E00895809180
:104C0000E80080FFE3CF2091F3008091F20090E074
:104C1000922B6115710559F08830910540F424916B
:104C20002093F1003196615071090196F2CF21E095
:104C3000089709F020E08091E8008E778093E800E3
:104C4000C5CF2111C6CFD5CF80919C03882339F0E1
:104C5000853039F08091E80083FFCBCF04C082E03B
:104C6000089583E0089581E00895982F973058F5CE
:104C70009093E900981739F07091EC002091ED00C5
:104C80005091F00003C0242F762F50E021FF19C06F
:104C90003091EB003E7F3093EB003091ED003D7F93
:104CA0003093ED003091EB0031603093EB00709366
:104CB000EC002093ED005093F0002091EE0027FFD0
:104CC00007C09F5FD3CF8F708093E90081E0089584
:104CD00080E0089580919D0387FD05C08091E800E4
:104CE00080FF0EC012C08091E80082FD05C0809157
:104CF0009C038111F8CF08958091E8008B7708C05C
:104D000080919C038111EACF08958091E8008E770D
:104D10008093E80008958091E4009091E50045E6D5
:104D20002091EC0020FF21C02091E80020FD21C04F
:104D300020919C03222389F0253089F02091EB00FB
:104D400025FD0FC02091E4003091E50028173907B8
:104D500039F3415041F0C901E3CF82E0089583E087
:104D6000089581E0089584E008952091E80022FFED
:104D7000DFCF80E008950E9429270E943127E0EECE
:104D8000F0E0808181608083E8EDF0E080818F77C2
:104D9000808319BCA7EDB0E08C918E7F8C938081CD
:104DA0008F7E808310929B0308950F931F93CF9360
:104DB000DF930E9429270E943127C8EDD0E0888127
:104DC0008F77888388818068888388818F7D8883B6
:104DD00019BC10929C031092980310929A0310929F
:104DE000990300EE10E0F80180818B7F8083888139
:104DF0008160888342E060E080E00E943526E1EE39
:104E0000F0E080818E7F8083E2EEF0E0808181603F
:104E10008083808188608083F80180818E7F808399
:104E2000888180618883DF91CF911F910F910895D0
:104E3000E8EDF0E080818F7E8083E7EDF0E0808117
:104E40008160808384E082BF81E080939B030C9427
:104E5000D526E8EDF0E080818E7F80831092E2001D
:104E600008951092DA001092E10008951F920F92B7
:104E70000FB60F9211242F933F934F935F936F932D
:104E80007F938F939F93AF93BF93EF93FF93809103
:104E9000E10082FF0BC08091E20082FF07C0809199
:104EA000E1008B7F8093E1000E9492298091DA00DB
:104EB00080FF1FC08091D80080FF1BC08091DA0066
:104EC0008E7F8093DA008091D90080FF0DC080E151
:104ED00089BD82E189BD09B400FEFDCF81E08093E8
:104EE0009C030E94A72305C019BC10929C030E943A
:104EF000B5238091E10080FF19C08091E20080FF1E
:104F000015C08091E2008E7F8093E2008091E200E4
:104F100080618093E2008091D80080628093D80005
:104F200019BC85E080939C030E94B9238091E10025
:104F300084FF30C08091E20084FF2CC080E189BDF5
:104F400082E189BD09B400FEFDCF8091D8008F7D3C
:104F50008093D8008091E1008F7E8093E100809162
:104F6000E2008F7E8093E2008091E2008160809376
:104F7000E20080919803882311F084E007C08091BB
:104F8000E30087FF02C083E001C081E080939C03BF
:104F90000E94BA238091E10083FF29C08091E20042
:104FA00083FF25C08091E100877F8093E10082E04C
:104FB00080939C03109298038091E1008E7F8093F0
:104FC000E1008091E2008E7F8093E2008091E20018
:104FD00080618093E20042E060E080E00E9435263C
:104FE0008091F00088608093F0000E94B823FF91C8
:104FF000EF91BF91AF919F918F917F916F915F9151
:105000004F913F912F910F900FBE0F901F901895C9
:105010001F920F920FB60F9211242F933F934F932D
:105020005F936F937F938F939F93AF93BF93CF9330
:10503000EF93FF93C091E900CF708091EC00109244
:10504000E9008091F000877F8093F00078940E94BF
:1050500044281092E9008091F00088608093F0006D
:10506000C093E900FF91EF91CF91BF91AF919F91D4
:105070008F917F916F915F914F913F912F910F9001
:105080000FBE0F901F9018951F93CF93DF93CDB74E
:10509000DEB7AA970FB6F894DEBF0FBECDBFEDE91D
:1050A000F3E08091F100819323E0E53AF207C9F73C
:1050B0000E94D0238091E80083FF1CC120919D03B2
:1050C00030919E03832F90E08A30910508F012C141
:1050D000FC01E558FF4F0C94A62D203881F02238B2
:1050E00009F008C18091A1038F708093E90080913D
:1050F000EB0085FB882780F91092E90006C08091BB
:10510000990390919A03911182609091E800977FA2
:105110009093E8008093F1001092F100C5C0822FB7
:105120008D7F09F0E7C0222319F0223061F0E2C040
:1051300080919F03813009F0DDC0333009F080E0B9
:1051400080939A0328C080919F03811124C02091ED
:10515000A1032F7009F4CEC02093E9008091EB00E9
:1051600080FF19C08091EB00333011F4806211C0D0
:1051700080618093EB0081E090E0022E01C0880FF7
:105180000A94EAF78093EA001092EA008091EB001B
:1051900088608093EB001092E9008091E800877F9F
:1051A00086C02111A7C010919F031F778091E30053
:1051B0008078812B8093E3008091E800877F809343
:1051C000E8000E946A268091E80080FFFCCF809171
:1051D000E30080688093E300112311F083E001C0B5
:1051E00082E080939C0386C02058223008F082C061
:1051F00080919F039091A0038C3D23E0920779F565
:1052000083E08A838AE289834FB7F894DE0113969C
:1052100020E03EE051E2E32FF0E050935700E491AC
:1052200020FF03C0E295EF703F5FEF708E2F90E09C
:10523000EA3010F0C79601C0C0968D939D932F5F02
:10524000243149F74FBF8091E800877F8093E800C1
:105250006AE270E0CE0101960E94722514C0AE0190
:105260004F5F5F4F6091A1030E94BA24009709F439
:1052700041C02091E800277F2093E800BC0189818C
:105280009A810E94D3258091E8008B778093E80073
:1052900031C0203879F58091E800877F8093E8005D
:1052A000809198038093F1008091E8008E7780933D
:1052B000E8000E946A261EC021111CC090919F0325
:1052C0009230C0F48091E800877F8093E80090934B
:1052D00098030E946A2680919803811104C08091EE
:1052E000E30087FF02C084E001C081E080939C035B
:1052F0000E94BC238091E80083FF0AC08091E800EF
:10530000877F8093E8008091EB0080628093EB00C0
:10531000AA960FB6F894DEBF0FBECDBFDF91CF9136
:105320001F9108950895CF9380919C038823B1F035
:105330008091E9008F709091EC0090FF02C090E89E
:1053400001C090E0C92FC82B1092E9008091E800BD
:1053500083FD0E944428CF70C093E900CF91089547
:105360005058BB27AA270ED0D1C1C2D130F0C7D127
:1053700020F031F49F3F11F41EF4B7C10EF4E09514
:10538000E7FB9FC1E92FD3D180F3BA1762077307F8
:105390008407950718F071F49EF5EBC10EF4E095C3
:1053A0000B2EBA2FA02D0B01B90190010C01CA01DF
:1053B000A0011124FF27591B99F0593F50F4503E8A
:1053C00068F11A16F040A22F232F342F4427585F7C
:1053D000F3CF469537952795A795F0405395C9F794
:1053E0007EF41F16BA0B620B730B840BBAF091504C
:1053F000A1F0FF0FBB1F661F771F881FC2F70EC0EB
:10540000BA0F621F731F841F48F4879577956795BD
:10541000B795F7959E3F08F0B3CF9395880F08F0A6
:105420009927EE0F97958795089527D108F481E085
:1054300008950CD06BC163D140F05AD130F021F403
:105440005F3F19F03EC1511195C14FC170D198F322
:105450009923C9F35523B1F3951B550BBB27AA27F5
:1054600062177307840738F09F5F5F4F220F331F67
:10547000441FAA1FA9F333D00E2E3AF0E0E830D033
:1054800091505040E695001CCAF729D0FE2F27D036
:10549000660F771F881FBB1F261737074807AB0704
:1054A000B0E809F0BB0B802DBF01FF2793585F4F79
:1054B0002AF09E3F510568F004C15CC15F3FECF3E8
:1054C000983EDCF3869577956795B795F7959F5F3E
:1054D000C9F7880F911D9695879597F90895E1E092
:1054E000660F771F881FBB1F621773078407BA07F1
:1054F00020F0621B730B840BBA0BEE1F88F7E0954C
:10550000089504D06894B11135C1089518D188F078
:105510009F5790F0B92F9927B751A0F0D1F0660F9F
:10552000771F881F991F1AF0BA95C9F712C0B130BA
:1055300081F01FD1B1E008951CC1672F782F882713
:10554000B85F39F0B93FCCF3869577956795B395F9
:10555000D9F73EF490958095709561957F4F8F4F68
:105560009F4F0895E89409C097FB3EF4909580956D
:10557000709561957F4F8F4F9F4F9923A9F0F92F19
:1055800096E9BB279395F695879577956795B79597
:10559000F111F8CFFAF4BB0F11F460FF1BC06F5F7D
:1055A0007F4F8F4F9F4F16C0882311F096E911C08F
:1055B000772321F09EE8872F762F05C0662371F0B0
:1055C00096E8862F70E060E02AF09A95660F771FC4
:1055D000881FDAF7880F9695879597F9089588D0F0
:1055E00018F011F08CD038F480C0C4C0E92F9FD0DF
:1055F000B0F35523C9F3E7FB6217730784079507D8
:10560000A8F199F3E92FFF2788232AF03197660F35
:10561000771F881FDAF7952F5527442332F09150D2
:105620005040220F331F441FD2F7BB27E91BF50B55
:10563000621B730B840BB109C1F222F4620F731F5A
:10564000841FB11D31972AF0660F771F881FBB1F7B
:10565000EFCF915050405AF041F0882332F0660F5E
:10566000771F881F91505040C1F7939530C08695A1
:10567000779567959F5FD9F7F8CF990F0008550F79
:10568000AA0BE0E8FEEF16161706E807F907C0F0C8
:1056900012161306E407F50798F0621B730B840BD0
:1056A000950B39F40A2661F0232B242B252B21F4AA
:1056B00008950A2609F4A140A6958FEF811D811D4A
:1056C000089597F99F6780E870E060E008959F3F34
:1056D00031F0915020F4879577956795B795880FAD
:1056E000911D9695879597F908959FEF80EC089501
:1056F00000240A94161617061806090608950024B1
:105700000A9412161306140605060895092E03942A
:10571000000C11F4882352F0BB0F40F4BF2B11F49E
:1057200060FF04C06F5F7F4F8F4F9F4F089557FDFD
:105730009058440F551F59F05F3F71F04795880FFF
:1057400097FB991F61F09F3F79F087950895121696
:1057500013061406551FF2CF4695F1DF08C0161642
:1057600017061806991FF1CF8695710561050894F3
:105770000895E894BB2766277727CB0197F908950A
:105780007CDF08F48FEF08950BD0C0CFB1DF28F095
:10579000B6DF18F0952309F094CFA7CF1124EACFF4
:1057A000C6DFA0F3959FD1F3950F50E0551F629F80
:1057B000F001729FBB27F00DB11D639FAA27F00D6A
:1057C000B11DAA1F649F6627B00DA11D661F829F91
:1057D0002227B00DA11D621F739FB00DA11D621F76
:1057E000839FA00D611D221F749F3327A00D611D93
:1057F000231F849F600D211D822F762F6A2F112475
:105800009F5750408AF0E1F088234AF0EE0FFF1FC7
:10581000BB1F661F771F881F91505040A9F79E3FFE
:10582000510570F04ECFA6CF5F3FECF3983EDCF30E
:10583000869577956795B795F795E7959F5FC1F73B
:10584000FE2B880F911D9695879597F90895FA017B
:10585000EE0FFF1F30962105310599F16115710595
:1058600061F48038BFE39B0749F168949038810563
:1058700061F08038BFEF9B0741F0992342F5FF3F6D
:10588000E1053105210511F1E8940894E795D90166
:10589000AA2329F4AB2FBE2FF85FD0F310C0FF5F0F
:1058A00070F4A695E0F7F73950F019F0FF3A38F4A4
:1058B0009F779F930CD00F9007FC905808953EF06F
:1058C00014CF60E070E080E89FE308954FE79F7792
:1058D0005F934F933F932F939ED02F913F914F9182
:1058E0005F9152DF05C019F40EF0EBCE42CFFDCE32
:1058F00026DFC8F39638C0F707F80F92E8942BE339
:105900003AEA48EB5FE74EDF0F920F920F924DB7E6
:105910005EB70F92C0D0EAE0F1E016D04F915F91F0
:10592000EF91FF91E595EE1FFF1F49F0FE57E068EC
:105930004427EE0F441FFA95E1F74195550B32D0FD
:105940000F9007FE26C00895DF93CF931F930F9308
:10595000FF92EF92DF927B018C01689405C0DA2EF2
:10596000EF011EDFFE01E894A59125913591459147
:105970005591AEF3EF0106DDFE019701A801DA941F
:1059800079F7DF90EF90FF900F911F91CF91DF910A
:1059900008959B01AC0160E070E080E89FE349CD91
:1059A00090CE95CECCDEE8F39923D9F3940F511D18
:1059B000BBF39150504094F059F0882332F0660FB9
:1059C000771F881F91505040C1F79E3F510544F703
:1059D000880F911D9695879597F908955F3FACF0D4
:1059E000983E9CF0BB27869577956795B79508F408
:1059F000B1609395C1F7BB0F58F711F460FFE8CF82
:105A00006F5F7F4F8F4F9F4FE3CFB4CE0EF05FCECF
:105A10006CCE689456CE93DEC8F39923D1F3C6F3C7
:105A2000DF93CF931F930F93FF92C92FDD27882316
:105A30002AF02197660F771F881FDAF720E030E001
:105A400040E85FEB9FE3883920F0803E30F02196FC
:105A50008F7787DCE2E3F1E003C083DCEFE5F1E080
:105A600073DF8B01BE01EC01FB2E6F577109759539
:105A7000771F880B990B78DD28E132E741E35FE37C
:105A80008FDEAF2D9801AE01FF900F911F91CF9146
:105A9000DF9178DC3BCEFA01DC01AA0FBB1F9B0132
:105AA000AC01BF5728F422273327442750781FC062
:105AB000B75188F4AB2F0024469537952795011CE4
:105AC000A395D2F3002069F0220F331F441FB39532
:105AD000DAF30DD045CC61307105A0E88A07B946EC
